:020000040000FA
:08000000803102288731F82F3E
:1002680020008E150E128E120E17A330F000553096
:10027800890B3C29F00B3C290000080020008E1156
:100288000E168E160E13A330F0005530890B4A292E
:10029800F00B4A290000080020008E110E128E1261
:1002A8000E13A330F0005530890B5829F00B58294C
:1002B8000000080020008E110E128E120E17A330B7
:1002C800F0005530890B6629F00B662900000800FC
:1002D80020008E110E168E120E130230F1004530DA
:1002E800F000AA30890B7629F00B7629F10B7629D4
:1002F8000800F101F20120000E154230890B822915
:10030800003220000E110730F0003A30890B8A299C
:10031800F00B8A2900320130F1070030F23D00303D
:100328007202323003197102031C9B299C297F2910
:100338000800F101F20120000E15B730890BA2293F
:10034800000020000E110630F000C630890BAA29E3
:10035800F00BAA2900320130F1070030F23D0030DD
:100368007202323003197102031CBB29BC299F2970
:100378000800F101F20120000E157D30890BC22919
:1003880020000E110630F0000030890BC929F00B4F
:10039800C929003200000130F1070030F23D003079
:1003A8007202323003197102031CDB29DC29BF29D0
:1003B8000800F800F401F5017008F200F301720872
:1003C800F6007308F700781CEA29EB29EF2976086C
:1003D800F4077708F53D0130F635F70D890BF0295C
:1003E8000310F80C7808031DFA29FB29E72975087A
:1003F800F1007408F00008002000E001E101970115
:1004080096018E14003220008E100E1C0C2A0D2A24
:10041800092A18140E18112A122A0E2A1810170859
:10042800E3001608E2006208F0006308F100890D95
:10043800893B8909F200F30001308331412382317D
:1004480073082000A7007208A6007108A5007008AC
:10045800A4003C30A300DE30A200D230A1008930D5
:10046800A0008531A125823120002308C10022087F
:10047800C0002108BF002008BE004030BD00003089
:10048800BC000030BB000030BA008331ED2382315C
:1004980020003D08D7003C08D6003B08D5003A08A4
:1004A800D4008231CC22823120005508E100540862
:1004B800E0000800013021008E0020302000980064
:1004C80081317D2182318131BD2182318231002209
:1004D800823120006108803ADF0080305F02031D0E
:1004E800772A06306002031C7A2A7B2A7E2A813109
:1004F8004221823120006108803ADF0080305F02AB
:10050800031D882A0530600203188B2A8C2A982A32
:1005180081315021823181313421823181316C2104
:10052800823181314221823181319D218231823172
:100538000022823120006108803ADF0080305F02AB
:10054800031DA82A06306002031CAB2AAC2AAF2A76
:1005580081314221823120006108803ADF008030F9
:100568005F02031DB92A053060020318BC2ABD2AA0
:10057800642A8131502182318131342182318131A3
:100588005E218231813142218231642A8031022800
:1005980003102000560D570DD8005808DE005E08DD
:1005A800031DD72AD82AE12A0030D7000030D60008
:1005B8000030D5000030D400402B5408D80055082E
:1005C800D9005608DA005708DB001F30DB36DA0C92
:1005D800D90CD80C890BEA2A5808DC005C08DD0025
:1005E800D617FF30D405FF30D505FF30D6050030CB
:1005F800D7059630DE02DE1F022B032B1B2B5E086D
:10060800803A973E0318092B0A2B0B2BD82A013066
:10061800D736D60CD50CD40C890B0C2B0130D8004E
:100628005808DE07031D192B1A2B0B2B302B2030F3
:100638005E02031C202B212B2B2BD82A0130D4350A
:10064800D50DD60DD70D890B232B0130DE025E08A0
:10065800031D2F2B302B222B5D080319342B352B30
:10066800402BD409D509D609D709D40A0319D50AC4
:100678000319D60A0319D70A0800F80078080319DD
:10068800462B472B5B2BF31F4A2B4B2B5B2B7009FD
:10069800FA007109FB007209FC007309FD00FA0AEF
:1006A8000319FB0A0319FC0A0319FD0A632B7308D3
:1006B800FD007208FC007108FB007008FA0073085E
:1006C800720471047004031D6A2B6B2B742B0030A9
:1006D800F3000030F2000030F1000030F000EC2BA5
:1006E8009630F4007408F900842B0130F400740883
:1006F800F9070130FD36FC0CFB0CFA0C890B7E2B3C
:10070800FE307D05031D892B8A2B792B9E2B01300A
:10071800F4007408F9070130FA070030FB3D003097
:10072800FC3D0030FD3D0130FD36FC0CFB0CFA0CA5
:10073800890B982BFF307D05031DA32BA42B8B2B36
:10074800AE2B0130F9020130FA35FB0DFC0DFD0D21
:10075800890BA82BFC1BB12BB22BB82B02307902CA
:100768000318B72BB82BA52B7918BB2BBC2BC42B84
:10077800FF30FA05FF30FB057F30FC05FF30FD0533
:100788000310F90C7908F400F501F601F7011830A7
:10079800F435F50DF60DF70D890BCC2B7408FA041A
:1007A8007508FB047608FC047708FD04780803192B
:1007B800DE2BDF2BE42BF31FE22BE32BE42BFD17BF
:1007C8007D08F3007C08F2007B08F1007A08F0004D
:1007D8000800200041088039C2004208CB0041359A
:1007E800C2004208D200C01FFA2BFB2BFC2B52146C
:1007F80052080319002C012C112C520A031D052C38
:10080800062C0E2C0030C1000030C0000030BF00A4
:100818000030BE00C017C101192C0030C1000030E3
:10082800C0000030BF000030BE003D088039C20063
:100838004208CB063D35C2004208D300BC1F252C18
:10084800262C272C5314530803192B2C2C2C3C2C06
:10085800530A031D302C312C392C0030BD000030D8
:10086800BC000030BB000030BA00BC17BD01442CEE
:100878000030BD000030BC000030BB000030BA00C2
:100888003D083C043B043A04031D4B2C4C2C652CBE
:100898000030C1000030C0000030BF000030BE0092
:1008A8008030C0047F30C1044B08C2004208C10434
:1008B8004108BD004008BC003F08BB003E08BA0024
:1008C800A02D5208031D692C6A2C732C0030BD0022
:1008D8000030BC000030BB000030BA00A02D520828
:1008E800C200C3014308C50053084202C400031CE8
:1008F800C50344087F3ECC000030453DCD0041088B
:10090800CA004008C9003F08C8003E08C7000030B8
:10091800C1000030C0000030BF000030BE00003011
:10092800D1000030D0000030CF000030CE00D3011D
:10093800DB2C53080319A12CA22CBC2C0130C73581
:10094800C80DC90DCA0D890BA32C0130BE35BF0DCA
:10095800C00DC10D890BAA2CD11FB32CB42CB52CFA
:100968003E140130CE35CF0DD00DD10D890BB62CEC
:100978003D084A02031DCA2C3C084902031DCA2C23
:100988003B084802031DCA2C3A084702031CCD2C19
:10099800CE2CD72C51173A08C7023B08C83B3C0855
:1009A800C93B3D08CA3B0130C2004208D3071A3090
:1009B8005302031CE02CE12C9D2C4A0849044804EE
:1009C80047040319E82CE92C022D4E14022D01309E
:1009D800BE35BF0DC00DC10D890BEC2CD11FF52CF8
:1009E800F62CF72C3E140130CE35CF0DD00DD10D9D
:1009F800890BF82CFF30CC07FF30CD3DC01F052DEB
:100A0800062DEB2CD301D11F0A2D0B2D272DFF30DE
:100A18004E05C200FF304F05C300FF305005C4002B
:100A28007F305105C50045084404430442040319B6
:100A38001E2D1F2D222DD301D30A272D3E1C252D17
:100A4800262D272D1F2D530803192B2D2C2D542D02
:100A58000130BE070030BF3D0030C03D0030C13D11
:100A6800411C372D382D542D3E08C2003F08C300C5
:100A78004008C4004108C5000130C600C537C40C91
:100A8800C30CC20CC60B422D4508C1004408C00067
:100A98004308BF004208BE000130CC070030CD3DFE
:100AA8004D08803AC20080304202031D5D2DFF30A0
:100AB8004C02031C602D612D6E2DFF302000CC00F0
:100AC8000030CD000030C1000030C0000030BF0051
:100AD8000030BE0020004D08803AC200803042023B
:100AE800031D782D01304C0203187B2D7C2D882D99
:100AF8002000CC01CD010030C1000030C000003022
:100B0800BF000030BE00CB0120004C08C2004208E4
:100B1800D200521C902D912D932DC017972D7F3008
:100B2800C2004208C0055236C2004208C1004B0844
:100B3800C2004208C1045C2C080020002308803948
:100B4800A8002808AD002335A8002808B300A21F74
:100B5800AE2DAF2DB02D331433080319B42DB52D98
:100B6800C42D330A031DB92DBA2DC22D0030A300A0
:100B78000030A2000030A1000030A000A217CC2D48
:100B88000030A3000030A2000030A1000030A00017
:100B980027088039A8002808AD062735A8002808A6
:100BA800B200A61FD82DD92DDA2D32143208031918
:100BB800DE2DDF2DEE2D320A031DE32DE42DEC2D65
:100BC8000030A7000030A6000030A5000030A400C7
:100BD800A617F62D0030A7000030A6000030A500AB
:100BE8000030A40032080319FA2DFB2D002E33081B
:100BF800031DFF2D002E092E0030A3000030A20097
:100C08000030A1000030A000F72F2008A800280815
:100C1800F00026088131DD21853171082000B900F6
:100C28007008B8003808A800A901AA01AB012B0870
:100C3800B1002A08B0002908AF002808AE0039081A
:100C4800A800A901AA01AB012B08B7002A08B60021
:100C58002908B5002808B4002108A8002808F000D1
:100C680025088131DD21853171082000B90070081F
:100C7800B8003808A800A901AA01AB012808AE07E6
:100C88002908AF3D2A08B03D2B08B13D3908A80016
:100C9800A901AA01AB012808B4072908B53D2A080B
:100CA800B63D2B08B73D2208A8002808F000240804
:100CB8008131DD21853171082000B9007008B80044
:100CC8003808A800A901AA01AB012808AE0729081D
:100CD800AF3D2A08B03D2B08B13D3908A800A9014D
:100CE800AA01AB012808B4072908B53D2A08B63D72
:100CF8002B08B73D0830AE35AF0DB00DB10D890BDF
:100D08007F2E2108A8002808F00024088131DD2161
:100D1800853171082000B9007008B8003808AE079E
:100D28003908AF3D0030B03DB13D2008A800280883
:100D3800F00025088131DD21853171082000B900D6
:100D48007008B8003808AE073908AF3D0030B03D2C
:100D5800B13D0830AE35AF0DB00DB10D890BAE2EDB
:100D68002008A8002808F00024088131DD218531F9
:100D780071082000B9007008B8003808AE073908B3
:100D8800AF3D0030B03DB13D2108A8002808F00073
:100D980026088131DD21853171082000B9007008ED
:100DA800B8003808B4073908B53D0030B63DB73D3E
:100DB8002208A8002808F00025088131DD218531A6
:100DC80071082000B9007008B8003808B40739085D
:100DD800B53D0030B63DB73D2208A8002808F00010
:100DE80026088131DD21853171082000B90070089D
:100DF800B8003808A8003908A900AA01AB010830D2
:100E0800A835A90DAA0DAB0D890B042F2808B40726
:100E18002908B53D2A08B63D2B08B73D2E08A8007D
:100E28002F08A9003008AA003108AB001830AB36EB
:100E3800AA0CA90CA80C890B1B2F2808B407290891
:100E4800B53D2A08B63D2B08B73D0830AE35AF0D85
:100E5800B00DB10D890B2A2F33083207A800A9015C
:100E6800A90D2808823EB800FF30293DB900532F4C
:100E78000130B435B50DB60DB70D890B3D2FB11F37
:100E8800462F472F482F34140130AE35AF0DB00D23
:100E9800B10D890B492FFF30B807FF30B93DB61F98
:100EA800562F572F3C2FB201B11F5B2F5C2F782F85
:100EB800FF302E05A800FF302F05A900FF303005B0
:100EC800AA007F303105AB002B082A042904280426
:100ED80003196F2F702F732FB201B20A782F341CA9
:100EE800762F772F782F702F320803197C2F7D2FBC
:100EF800A52F0130B4070030B53D0030B63D0030B5
:100F0800B73D371C882F892FA52F3408A80035082E
:100F1800A9003608AA003708AB000130AC00AB378F
:100F2800AA0CA90CA80CAC0B932F2B08B7002A0805
:100F3800B6002908B5002808B4000130B807003009
:100F4800B93D3908803AA80080302802031DAE2F29
:100F5800FF303802031CB12FB22FBC2F7F30200086
:100F6800B7008030B6000030B5000030B400EB2F79
:100F780020003908803AA80080302802031DC62FB7
:100F8800013038020318C92FCA2FD52F003020008E
:100F9800B7000030B6000030B5000030B400AD0135
:100FA800EB2F20003808A8002808B300FF30B4054C
:100FB800FF30B5057F30B6050030B705331CE52F87
:100FC800E62FE72FB6173336A8002808B7002D08F4
:100FD800A8002808B7043708A3003608A200350877
:100FE800A1003408A00008002000E001E101E201AE
:080FF800E301200082315E2AB2
:020000040001F9
:04000E00C2FFFFDF4F
:00000001FF
